{
  "contractName": "Coin",
  "abi": [
    {
      "constant": true,
      "inputs": [],
      "name": "currentState",
      "outputs": [
        {
          "name": "",
          "type": "uint8"
        }
      ],
      "payable": false,
      "stateMutability": "view",
      "type": "function"
    },
    {
      "constant": false,
      "inputs": [
        {
          "name": "targetState",
          "type": "bytes32"
        }
      ],
      "name": "transitionGameState",
      "outputs": [
        {
          "name": "",
          "type": "bool"
        }
      ],
      "payable": false,
      "stateMutability": "nonpayable",
      "type": "function"
    },
    {
      "constant": true,
      "inputs": [],
      "name": "player2",
      "outputs": [
        {
          "name": "",
          "type": "address"
        }
      ],
      "payable": false,
      "stateMutability": "view",
      "type": "function"
    },
    {
      "constant": true,
      "inputs": [],
      "name": "coinFlip",
      "outputs": [
        {
          "name": "",
          "type": "uint256"
        }
      ],
      "payable": false,
      "stateMutability": "view",
      "type": "function"
    },
    {
      "constant": true,
      "inputs": [],
      "name": "wager",
      "outputs": [
        {
          "name": "",
          "type": "uint256"
        }
      ],
      "payable": false,
      "stateMutability": "view",
      "type": "function"
    },
    {
      "constant": true,
      "inputs": [],
      "name": "owner",
      "outputs": [
        {
          "name": "",
          "type": "address"
        }
      ],
      "payable": false,
      "stateMutability": "view",
      "type": "function"
    },
    {
      "constant": false,
      "inputs": [],
      "name": "resolveBet",
      "outputs": [
        {
          "name": "",
          "type": "bool"
        }
      ],
      "payable": false,
      "stateMutability": "nonpayable",
      "type": "function"
    },
    {
      "constant": false,
      "inputs": [],
      "name": "makeWager",
      "outputs": [
        {
          "name": "",
          "type": "bool"
        }
      ],
      "payable": true,
      "stateMutability": "payable",
      "type": "function"
    },
    {
      "constant": false,
      "inputs": [],
      "name": "acceptWager",
      "outputs": [
        {
          "name": "",
          "type": "bool"
        }
      ],
      "payable": true,
      "stateMutability": "payable",
      "type": "function"
    },
    {
      "constant": true,
      "inputs": [],
      "name": "player1",
      "outputs": [
        {
          "name": "",
          "type": "address"
        }
      ],
      "payable": false,
      "stateMutability": "view",
      "type": "function"
    },
    {
      "inputs": [],
      "payable": false,
      "stateMutability": "nonpayable",
      "type": "constructor"
    }
  ],
  "bytecode": "0x6060604052341561000f57600080fd5b336000806101000a81548173ffffffffffffffffffffffffffffffffffffffff021916908373ffffffffffffffffffffffffffffffffffffffff16021790555060008060146101000a81548160ff0219169083600281111561006d57fe5b021790555061084a806100816000396000f3006060604052600436106100a4576000357c0100000000000000000000000000000000000000000000000000000000900463ffffffff1680630c3f6acf146100a957806330bd012e146100e057806359a5f12d1461011f5780635ac947cb14610174578063667d5d221461019d5780638da5cb5b146101c65780638fced6261461021b578063aefd029914610248578063b7ec2a961461026a578063d30895e41461028c575b600080fd5b34156100b457600080fd5b6100bc6102e1565b604051808260028111156100cc57fe5b60ff16815260200191505060405180910390f35b34156100eb57600080fd5b6101056004808035600019169060200190919050506102f4565b604051808215151515815260200191505060405180910390f35b341561012a57600080fd5b610132610460565b604051808273ffffffffffffffffffffffffffffffffffffffff1673ffffffffffffffffffffffffffffffffffffffff16815260200191505060405180910390f35b341561017f57600080fd5b610187610486565b6040518082815260200191505060405180910390f35b34156101a857600080fd5b6101b061048c565b6040518082815260200191505060405180910390f35b34156101d157600080fd5b6101d9610492565b604051808273ffffffffffffffffffffffffffffffffffffffff1673ffffffffffffffffffffffffffffffffffffffff16815260200191505060405180910390f35b341561022657600080fd5b61022e6104b7565b604051808215151515815260200191505060405180910390f35b610250610687565b604051808215151515815260200191505060405180910390f35b610272610735565b604051808215151515815260200191505060405180910390f35b341561029757600080fd5b61029f6107f8565b604051808273ffffffffffffffffffffffffffffffffffffffff1673ffffffffffffffffffffffffffffffffffffffff16815260200191505060405180910390f35b600060149054906101000a900460ff1681565b60008060009054906101000a900473ffffffffffffffffffffffffffffffffffffffff1673ffffffffffffffffffffffffffffffffffffffff163373ffffffffffffffffffffffffffffffffffffffff16141561045b577f6e6f576167657200000000000000000000000000000000000000000000000000826000191614156103a35760008060146101000a81548160ff0219169083600281111561039557fe5b02179055506001905061045a565b7f77616765724d6164650000000000000000000000000000000000000000000000826000191614156103fc576001600060146101000a81548160ff021916908360028111156103ee57fe5b02179055506001905061045a565b7f776167676572416363657074656400000000000000000000000000000000000082600019161415610455576002600060146101000a81548160ff0219169083600281111561044757fe5b02179055506001905061045a565b600090505b5b919050565b600360009054906101000a900473ffffffffffffffffffffffffffffffffffffffff1681565b60045481565b60015481565b6000809054906101000a900473ffffffffffffffffffffffffffffffffffffffff1681565b60008060006002600060149054906101000a900460ff1660028111156104d957fe5b8160028111156104e557fe5b141561067c57600554406001900492507f80000000000000000000000000000000000000000000000000000000000000009150818381151561052357fe5b04600481905550600060045414156105d857600260009054906101000a900473ffffffffffffffffffffffffffffffffffffffff1673ffffffffffffffffffffffffffffffffffffffff166108fc3073ffffffffffffffffffffffffffffffffffffffff16319081150290604051600060405180830381858888f1935050505050600060018190555060008060146101000a81548160ff021916908360028111156105ca57fe5b021790555060019350610677565b600360009054906101000a900473ffffffffffffffffffffffffffffffffffffffff1673ffffffffffffffffffffffffffffffffffffffff166108fc3073ffffffffffffffffffffffffffffffffffffffff16319081150290604051600060405180830381858888f1935050505050600060018190555060008060146101000a81548160ff0219169083600281111561066d57fe5b0217905550600193505b610681565b600080fd5b50505090565b600080600060149054906101000a900460ff1660028111156106a557fe5b8160028111156106b157fe5b141561072c573460018190555033600260006101000a81548173ffffffffffffffffffffffffffffffffffffffff021916908373ffffffffffffffffffffffffffffffffffffffff1602179055506001600060146101000a81548160ff0219169083600281111561071e57fe5b021790555060019150610731565b600080fd5b5090565b60006001600060149054906101000a900460ff16600281111561075457fe5b81600281111561076057fe5b14156107ef576001543414156107e55733600360006101000a81548173ffffffffffffffffffffffffffffffffffffffff021916908373ffffffffffffffffffffffffffffffffffffffff160217905550436005819055506002600060146101000a81548160ff021916908360028111156107d757fe5b0217905550600191506107ea565b600080fd5b6107f4565b600080fd5b5090565b600260009054906101000a900473ffffffffffffffffffffffffffffffffffffffff16815600a165627a7a723058202c77bd5e080161fb9e33bc3bf117e5d8aa1c9268e28e635624f20b57327e418c0029",
  "source": "pragma solidity ^0.4.4;\n\nimport './owned.sol';\n\ncontract Coin is owned {\n\n  enum GameState {noWager, wagerMade, waggerAccepted}\n  GameState public currentState;\n\n  uint public wager;\n  address public player1;\n  address public player2;\n  uint256 public coinFlip; \n  uint seedBlockNumber;\n\n  modifier onlyState(GameState expectedState){\n    if(expectedState == currentState) {_;}\n    else{throw;}\n  }\n\n  function Coin() {\n    currentState = GameState.noWager;\n  }\n\n  function transitionGameState(bytes32 targetState) onlyOwner() returns(bool){\n    if(targetState == 'noWager'){\n      currentState = GameState.noWager;\n      return true;\n    }\n    else if(targetState == 'wagerMade'){\n      currentState = GameState.wagerMade;\n      return true;\n    }\n    else if(targetState == 'waggerAccepted'){\n      currentState = GameState.waggerAccepted;\n      return true;\n    }\n    return false;\n  }\n\n  function makeWager() onlyState(GameState.noWager)  payable returns(bool){\n     wager = msg.value;\n     player1 = msg.sender;\n     currentState = GameState.wagerMade;\n      return true;\n  }\n\n   function acceptWager() onlyState(GameState.wagerMade) payable returns(bool){\n     if(msg.value == wager){\n      player2 = msg.sender;\n      seedBlockNumber = block.number;\n      currentState = GameState.waggerAccepted ;\n      return true;\n     }else{\n       throw;\n     }\n  }\n\n   function resolveBet() onlyState(GameState.waggerAccepted) returns(bool){\n      uint256 blockValue = uint256(block.blockhash(seedBlockNumber));\n      uint256 FACTOR = 57896044618658097711785492504343953926634992332820282019728792003956564819968;\n      coinFlip = uint256(uint256(blockValue) / FACTOR);\n      if(coinFlip == 0){\n      player1.send(this.balance);\n      wager = 0;\n      currentState = GameState.noWager;\n      return true;\n      }else{\n        player2.send(this.balance);\n        wager = 0;\n        currentState = GameState.noWager;\n        return true;\n      }\n  }\n\n}\n",
  "sourcePath": "F:\\workspace\\ether\\contract and front\\contract\\contracts\\Coin.sol",
  "compiler": {
    "name": "solc",
    "version": "0.4.18+commit.9cf6e910.Emscripten.clang"
  },
  "schemaVersion": "1.0.1",
  "updatedAt": "2018-03-04T20:10:06.318Z"
}