{
  "contractName": "Coursetro",
  "abi": [
    {
      "constant": true,
      "inputs": [],
      "name": "getName",
      "outputs": [
        {
          "name": "",
          "type": "string"
        }
      ],
      "payable": false,
      "stateMutability": "view",
      "type": "function"
    },
    {
      "constant": true,
      "inputs": [],
      "name": "lName",
      "outputs": [
        {
          "name": "",
          "type": "string"
        }
      ],
      "payable": false,
      "stateMutability": "view",
      "type": "function"
    },
    {
      "constant": true,
      "inputs": [],
      "name": "balance",
      "outputs": [
        {
          "name": "",
          "type": "uint256"
        }
      ],
      "payable": false,
      "stateMutability": "view",
      "type": "function"
    },
    {
      "constant": false,
      "inputs": [
        {
          "name": "_fName",
          "type": "string"
        }
      ],
      "name": "setName",
      "outputs": [],
      "payable": false,
      "stateMutability": "nonpayable",
      "type": "function"
    },
    {
      "constant": true,
      "inputs": [],
      "name": "getMessage",
      "outputs": [
        {
          "name": "",
          "type": "string"
        }
      ],
      "payable": false,
      "stateMutability": "view",
      "type": "function"
    },
    {
      "inputs": [],
      "payable": false,
      "stateMutability": "nonpayable",
      "type": "constructor"
    }
  ],
  "bytecode": "0x60606040526040805190810160405280600581526020017f70757474730000000000000000000000000000000000000000000000000000008152506002908051906020019061004f929190610069565b50341561005b57600080fd5b61037860018190555061010e565b828054600181600116156101000203166002900490600052602060002090601f016020900481019282601f106100aa57805160ff19168380011785556100d8565b828001600101855582156100d8579182015b828111156100d75782518255916020019190600101906100bc565b5b5090506100e591906100e9565b5090565b61010b91905b808211156101075760008160009055506001016100ef565b5090565b90565b6105308061011d6000396000f30060606040526004361061006d576000357c0100000000000000000000000000000000000000000000000000000000900463ffffffff16806317d7de7c1461007257806332f986ec14610100578063b69ef8a81461018e578063c47f0027146101b7578063ce6d41de14610214575b600080fd5b341561007d57600080fd5b6100856102a2565b6040518080602001828103825283818151815260200191508051906020019080838360005b838110156100c55780820151818401526020810190506100aa565b50505050905090810190601f1680156100f25780820380516001836020036101000a031916815260200191505b509250505060405180910390f35b341561010b57600080fd5b61011361034a565b6040518080602001828103825283818151815260200191508051906020019080838360005b83811015610153578082015181840152602081019050610138565b50505050905090810190601f1680156101805780820380516001836020036101000a031916815260200191505b509250505060405180910390f35b341561019957600080fd5b6101a16103e8565b6040518082815260200191505060405180910390f35b34156101c257600080fd5b610212600480803590602001908201803590602001908080601f016020809104026020016040519081016040528093929190818152602001838380828437820191505050505050919050506103ee565b005b341561021f57600080fd5b610227610408565b6040518080602001828103825283818151815260200191508051906020019080838360005b8381101561026757808201518184015260208101905061024c565b50505050905090810190601f1680156102945780820380516001836020036101000a031916815260200191505b509250505060405180910390f35b6102aa61044b565b60008054600181600116156101000203166002900480601f0160208091040260200160405190810160405280929190818152602001828054600181600116156101000203166002900480156103405780601f1061031557610100808354040283529160200191610340565b820191906000526020600020905b81548152906001019060200180831161032357829003601f168201915b5050505050905090565b60028054600181600116156101000203166002900480601f0160208091040260200160405190810160405280929190818152602001828054600181600116156101000203166002900480156103e05780601f106103b5576101008083540402835291602001916103e0565b820191906000526020600020905b8154815290600101906020018083116103c357829003601f168201915b505050505081565b60015481565b806000908051906020019061040492919061045f565b5050565b61041061044b565b6040805190810160405280600e81526020017f736f204d616e79206572726f7273000000000000000000000000000000000000815250905090565b602060405190810160405280600081525090565b828054600181600116156101000203166002900490600052602060002090601f016020900481019282601f106104a057805160ff19168380011785556104ce565b828001600101855582156104ce579182015b828111156104cd5782518255916020019190600101906104b2565b5b5090506104db91906104df565b5090565b61050191905b808211156104fd5760008160009055506001016104e5565b5090565b905600a165627a7a723058202f2672e572c9982eadd97689fbcb1aea38ffe4833fd908f10bba6738deac183a0029",
  "source": "pragma solidity ^0.4.4;\n\ncontract Coursetro {\n\n  string fName;\n  uint public balance;\n  string public lName = 'putts';\n  \n  function Coursetro() public{\n    balance = 888;\n  }\n\n  function setName(string _fName) public{\n    fName = _fName;\n  }\n\n  function getName() public constant returns(string){\n    return fName;\n  }\n\n  function getMessage() public constant returns(string){\n    return 'so Many errors';\n  }\n}\n",
  "sourcePath": "F:\\workspace\\ether\\contract and front\\contract\\contracts\\Coursetro.sol",
  "compiler": {
    "name": "solc",
    "version": "0.4.18+commit.9cf6e910.Emscripten.clang"
  },
  "schemaVersion": "1.0.1",
  "updatedAt": "2018-03-03T21:55:10.675Z"
}