{
  "contractName": "CrowdFund",
  "abi": [
    {
      "constant": true,
      "inputs": [
        {
          "name": "_addr",
          "type": "address"
        }
      ],
      "name": "getFunderContribution",
      "outputs": [
        {
          "name": "",
          "type": "uint256"
        }
      ],
      "payable": false,
      "stateMutability": "view",
      "type": "function"
    },
    {
      "constant": true,
      "inputs": [],
      "name": "deadline",
      "outputs": [
        {
          "name": "",
          "type": "uint256"
        }
      ],
      "payable": false,
      "stateMutability": "view",
      "type": "function"
    },
    {
      "constant": true,
      "inputs": [],
      "name": "beneficiary",
      "outputs": [
        {
          "name": "",
          "type": "address"
        }
      ],
      "payable": false,
      "stateMutability": "view",
      "type": "function"
    },
    {
      "constant": true,
      "inputs": [
        {
          "name": "_index",
          "type": "uint256"
        }
      ],
      "name": "getFunderAddress",
      "outputs": [
        {
          "name": "",
          "type": "address"
        }
      ],
      "payable": false,
      "stateMutability": "view",
      "type": "function"
    },
    {
      "constant": true,
      "inputs": [],
      "name": "goal",
      "outputs": [
        {
          "name": "",
          "type": "uint256"
        }
      ],
      "payable": false,
      "stateMutability": "view",
      "type": "function"
    },
    {
      "constant": false,
      "inputs": [],
      "name": "refund",
      "outputs": [],
      "payable": false,
      "stateMutability": "nonpayable",
      "type": "function"
    },
    {
      "constant": false,
      "inputs": [],
      "name": "payout",
      "outputs": [],
      "payable": false,
      "stateMutability": "nonpayable",
      "type": "function"
    },
    {
      "constant": false,
      "inputs": [],
      "name": "getNow",
      "outputs": [
        {
          "name": "",
          "type": "uint256"
        }
      ],
      "payable": false,
      "stateMutability": "nonpayable",
      "type": "function"
    },
    {
      "constant": false,
      "inputs": [],
      "name": "contribute",
      "outputs": [],
      "payable": true,
      "stateMutability": "payable",
      "type": "function"
    },
    {
      "inputs": [
        {
          "name": "_beneficiary",
          "type": "address"
        },
        {
          "name": "_goal",
          "type": "uint256"
        },
        {
          "name": "_duration",
          "type": "uint256"
        }
      ],
      "payable": false,
      "stateMutability": "nonpayable",
      "type": "constructor"
    },
    {
      "anonymous": false,
      "inputs": [
        {
          "indexed": true,
          "name": "_from",
          "type": "address"
        },
        {
          "indexed": false,
          "name": "_value",
          "type": "uint256"
        }
      ],
      "name": "NewContribution",
      "type": "event"
    }
  ],
  "bytecode": "0x6060604052341561000f57600080fd5b60405160608061070883398101604052808051906020019091908051906020019091908051906020019091905050826000806101000a81548173ffffffffffffffffffffffffffffffffffffffff021916908373ffffffffffffffffffffffffffffffffffffffff160217905550816001819055508042016002819055505050506106698061009f6000396000f300606060405260043610610099576000357c0100000000000000000000000000000000000000000000000000000000900463ffffffff1680630930f6db1461009e57806329dcb0cf146100eb57806338af3eed146101145780633b6c89991461016957806340193883146101cc578063590e1ae3146101f557806363bd1d4a1461020a578063bbe4fd501461021f578063d7bb99ba14610248575b600080fd5b34156100a957600080fd5b6100d5600480803573ffffffffffffffffffffffffffffffffffffffff16906020019091905050610252565b6040518082815260200191505060405180910390f35b34156100f657600080fd5b6100fe61029b565b6040518082815260200191505060405180910390f35b341561011f57600080fd5b6101276102a1565b604051808273ffffffffffffffffffffffffffffffffffffffff1673ffffffffffffffffffffffffffffffffffffffff16815260200191505060405180910390f35b341561017457600080fd5b61018a60048080359060200190919050506102c6565b604051808273ffffffffffffffffffffffffffffffffffffffff1673ffffffffffffffffffffffffffffffffffffffff16815260200191505060405180910390f35b34156101d757600080fd5b6101df61030a565b6040518082815260200191505060405180910390f35b341561020057600080fd5b610208610310565b005b341561021557600080fd5b61021d6103fb565b005b341561022a57600080fd5b61023261049b565b6040518082815260200191505060405180910390f35b6102506104a3565b005b6000600360008373ffffffffffffffffffffffffffffffffffffffff1673ffffffffffffffffffffffffffffffffffffffff168152602001908152602001600020549050919050565b60025481565b6000809054906101000a900473ffffffffffffffffffffffffffffffffffffffff1681565b60006004828154811015156102d757fe5b906000526020600020900160009054906101000a900473ffffffffffffffffffffffffffffffffffffffff169050919050565b60015481565b6001543073ffffffffffffffffffffffffffffffffffffffff1631108015610339575060025442115b156103f9573373ffffffffffffffffffffffffffffffffffffffff166108fc600360003373ffffffffffffffffffffffffffffffffffffffff1673ffffffffffffffffffffffffffffffffffffffff168152602001908152602001600020549081150290604051600060405180830381858888f19350505050506000600360003373ffffffffffffffffffffffffffffffffffffffff1673ffffffffffffffffffffffffffffffffffffffff168152602001908152602001600020819055505b565b6001543073ffffffffffffffffffffffffffffffffffffffff163110158015610425575060025442115b15610499576000809054906101000a900473ffffffffffffffffffffffffffffffffffffffff1673ffffffffffffffffffffffffffffffffffffffff166108fc3073ffffffffffffffffffffffffffffffffffffffff16319081150290604051600060405180830381858888f19350505050505b565b600042905090565b6000600360003373ffffffffffffffffffffffffffffffffffffffff1673ffffffffffffffffffffffffffffffffffffffff16815260200190815260200160002054141561054f57600480548060010182816104ff91906105ec565b9160005260206000209001600033909190916101000a81548173ffffffffffffffffffffffffffffffffffffffff021916908373ffffffffffffffffffffffffffffffffffffffff160217905550505b34600360003373ffffffffffffffffffffffffffffffffffffffff1673ffffffffffffffffffffffffffffffffffffffff168152602001908152602001600020600082825401925050819055503373ffffffffffffffffffffffffffffffffffffffff167fbdaa686eb6f59012d211a74523da260341c516896e9e5be954163d6ecf26ffa2346040518082815260200191505060405180910390a2565b815481835581811511610613578183600052602060002091820191016106129190610618565b5b505050565b61063a91905b8082111561063657600081600090555060010161061e565b5090565b905600a165627a7a723058203ee7f46d7c2217815574f25df4f8cf949178124d67e4d21d9cb317e4285292250029",
  "source": "pragma solidity ^0.4.4;\n\ncontract CrowdFund {\n\n  address public beneficiary;\n  uint256 public goal;\n  uint256 public deadline;\n  \n  /*struct Funder {\n    address addr;\n    uint256 contribution;\n  }*/\n  //Funder[] funders;\n\n  event NewContribution(address indexed _from, uint256 _value);\n\n  mapping (address => uint256) funders;\n  address[] funderAddress;\n\n  function CrowdFund(address _beneficiary, uint256 _goal, uint256 _duration) {\n    beneficiary = _beneficiary;\n    goal = _goal;\n    deadline = now + _duration;\n  }\n\n  function contribute() payable {\n    if(funders[msg.sender]==0) funderAddress.push(msg.sender);\n      //funders.push(Funder(msg.sender, msg.value));\n      funders[msg.sender] += msg.value;\n      NewContribution(msg.sender, msg.value);    \n  }\n\n  function payout(){\n    if(this.balance >= goal && now > deadline) beneficiary.send(this.balance);\n  }\n\n  /*function refundx(){  \n    if(msg.sender != beneficiary) throw;\n    uint256 index = 0;\n    while(index < funders.length){\n      funders[index].addr.send(funders[index].contribution);\n      index++;\n    }\n\n  }*/\n\n  function refund(){\n    if(this.balance < goal && now > deadline){\n      msg.sender.send(funders[msg.sender]);\n      funders[msg.sender] = 0;\n    }\n  }\n\n  function getFunderContribution(address _addr) constant returns(uint){\n    return funders[_addr];\n  }\n\n  function getFunderAddress(uint _index) constant returns(address) {\n    return funderAddress[_index];\n  }\n\n  function getNow() returns(uint256){\n    return now;\n  }\n\n}\n",
  "sourcePath": "F:\\workspace\\ether\\contract and front\\contract\\contracts\\CrowdFund.sol",
  "compiler": {
    "name": "solc",
    "version": "0.4.18+commit.9cf6e910.Emscripten.clang"
  },
  "schemaVersion": "1.0.1",
  "updatedAt": "2018-03-04T23:27:42.233Z"
}